{
  "_format": "hh-sol-artifact-1",
  "contractName": "Wallet",
  "sourceName": "contracts/Wallet.sol",
  "abi": [
    {
      "inputs": [],
      "name": "deposit",
      "outputs": [],
      "stateMutability": "payable",
      "type": "function"
    },
    {
      "inputs": [],
      "name": "getBalance",
      "outputs": [
        {
          "internalType": "uint256",
          "name": "",
          "type": "uint256"
        }
      ],
      "stateMutability": "view",
      "type": "function"
    },
    {
      "inputs": [],
      "name": "getContractBalance",
      "outputs": [
        {
          "internalType": "uint256",
          "name": "",
          "type": "uint256"
        }
      ],
      "stateMutability": "view",
      "type": "function"
    },
    {
      "inputs": [
        {
          "internalType": "address",
          "name": "_address",
          "type": "address"
        }
      ],
      "name": "getWalletBalance",
      "outputs": [
        {
          "internalType": "uint256",
          "name": "",
          "type": "uint256"
        }
      ],
      "stateMutability": "view",
      "type": "function"
    },
    {
      "inputs": [
        {
          "internalType": "address payable",
          "name": "_to",
          "type": "address"
        },
        {
          "internalType": "uint256",
          "name": "amount",
          "type": "uint256"
        }
      ],
      "name": "withdraw",
      "outputs": [],
      "stateMutability": "nonpayable",
      "type": "function"
    }
  ],
  "bytecode": "0x608060405234801561001057600080fd5b506105db806100206000396000f3fe60806040526004361061004a5760003560e01c806312065fe01461004f5780636f9fb98a1461007a578063d0e30db0146100a5578063ed8ec194146100af578063f3fef3a3146100ec575b600080fd5b34801561005b57600080fd5b50610064610115565b604051610071919061033c565b60405180910390f35b34801561008657600080fd5b5061008f61015b565b60405161009c919061033c565b60405180910390f35b6100ad610163565b005b3480156100bb57600080fd5b506100d660048036038101906100d191906103ba565b6101ba565b6040516100e3919061033c565b60405180910390f35b3480156100f857600080fd5b50610113600480360381019061010e9190610451565b610202565b005b60008060003373ffffffffffffffffffffffffffffffffffffffff1673ffffffffffffffffffffffffffffffffffffffff16815260200190815260200160002054905090565b600047905090565b346000803373ffffffffffffffffffffffffffffffffffffffff1673ffffffffffffffffffffffffffffffffffffffff16815260200190815260200160002060008282546101b191906104c0565b92505081905550565b60008060008373ffffffffffffffffffffffffffffffffffffffff1673ffffffffffffffffffffffffffffffffffffffff168152602001908152602001600020549050919050565b806000803373ffffffffffffffffffffffffffffffffffffffff1673ffffffffffffffffffffffffffffffffffffffff168152602001908152602001600020541015610283576040517f08c379a000000000000000000000000000000000000000000000000000000000815260040161027a90610551565b60405180910390fd5b806000803373ffffffffffffffffffffffffffffffffffffffff1673ffffffffffffffffffffffffffffffffffffffff16815260200190815260200160002060008282546102d19190610571565b925050819055508173ffffffffffffffffffffffffffffffffffffffff166108fc829081150290604051600060405180830381858888f1935050505015801561031e573d6000803e3d6000fd5b505050565b6000819050919050565b61033681610323565b82525050565b6000602082019050610351600083018461032d565b92915050565b600080fd5b600073ffffffffffffffffffffffffffffffffffffffff82169050919050565b60006103878261035c565b9050919050565b6103978161037c565b81146103a257600080fd5b50565b6000813590506103b48161038e565b92915050565b6000602082840312156103d0576103cf610357565b5b60006103de848285016103a5565b91505092915050565b60006103f28261035c565b9050919050565b610402816103e7565b811461040d57600080fd5b50565b60008135905061041f816103f9565b92915050565b61042e81610323565b811461043957600080fd5b50565b60008135905061044b81610425565b92915050565b6000806040838503121561046857610467610357565b5b600061047685828601610410565b92505060206104878582860161043c565b9150509250929050565b7f4e487b7100000000000000000000000000000000000000000000000000000000600052601160045260246000fd5b60006104cb82610323565b91506104d683610323565b92508282019050808211156104ee576104ed610491565b5b92915050565b600082825260208201905092915050565b7f496e73756666696369656e742066756e64730000000000000000000000000000600082015250565b600061053b6012836104f4565b915061054682610505565b602082019050919050565b6000602082019050818103600083015261056a8161052e565b9050919050565b600061057c82610323565b915061058783610323565b925082820390508181111561059f5761059e610491565b5b9291505056fea26469706673582212207f0e29d4169133577b1a0555a00d338d59d44ad595fdb8e45183ede05fb188a064736f6c63430008120033",
  "linkReferences": {},
  "deployedLinkReferences": {}
}